{
  "address": "0x43dB1d3881d3e52F027249a91F463A610c2B8C76",
  "abi": [
    {
      "inputs": [],
      "stateMutability": "nonpayable",
      "type": "constructor"
    },
    {
      "inputs": [],
      "name": "AccessControlBadConfirmation",
      "type": "error"
    },
    {
      "inputs": [
        {
          "internalType": "address",
          "name": "account",
          "type": "address"
        },
        {
          "internalType": "bytes32",
          "name": "neededRole",
          "type": "bytes32"
        }
      ],
      "name": "AccessControlUnauthorizedAccount",
      "type": "error"
    },
    {
      "inputs": [
        {
          "internalType": "address",
          "name": "sender",
          "type": "address"
        },
        {
          "internalType": "uint256",
          "name": "balance",
          "type": "uint256"
        },
        {
          "internalType": "uint256",
          "name": "needed",
          "type": "uint256"
        },
        {
          "internalType": "uint256",
          "name": "tokenId",
          "type": "uint256"
        }
      ],
      "name": "ERC1155InsufficientBalance",
      "type": "error"
    },
    {
      "inputs": [
        {
          "internalType": "address",
          "name": "approver",
          "type": "address"
        }
      ],
      "name": "ERC1155InvalidApprover",
      "type": "error"
    },
    {
      "inputs": [
        {
          "internalType": "uint256",
          "name": "idsLength",
          "type": "uint256"
        },
        {
          "internalType": "uint256",
          "name": "valuesLength",
          "type": "uint256"
        }
      ],
      "name": "ERC1155InvalidArrayLength",
      "type": "error"
    },
    {
      "inputs": [
        {
          "internalType": "address",
          "name": "operator",
          "type": "address"
        }
      ],
      "name": "ERC1155InvalidOperator",
      "type": "error"
    },
    {
      "inputs": [
        {
          "internalType": "address",
          "name": "receiver",
          "type": "address"
        }
      ],
      "name": "ERC1155InvalidReceiver",
      "type": "error"
    },
    {
      "inputs": [
        {
          "internalType": "address",
          "name": "sender",
          "type": "address"
        }
      ],
      "name": "ERC1155InvalidSender",
      "type": "error"
    },
    {
      "inputs": [
        {
          "internalType": "address",
          "name": "operator",
          "type": "address"
        },
        {
          "internalType": "address",
          "name": "owner",
          "type": "address"
        }
      ],
      "name": "ERC1155MissingApprovalForAll",
      "type": "error"
    },
    {
      "inputs": [],
      "name": "InvalidInitialization",
      "type": "error"
    },
    {
      "inputs": [],
      "name": "NotInitializing",
      "type": "error"
    },
    {
      "inputs": [
        {
          "internalType": "address",
          "name": "owner",
          "type": "address"
        }
      ],
      "name": "OwnableInvalidOwner",
      "type": "error"
    },
    {
      "inputs": [
        {
          "internalType": "address",
          "name": "account",
          "type": "address"
        }
      ],
      "name": "OwnableUnauthorizedAccount",
      "type": "error"
    },
    {
      "anonymous": false,
      "inputs": [
        {
          "indexed": false,
          "internalType": "address",
          "name": "admin",
          "type": "address"
        }
      ],
      "name": "AdminAdded",
      "type": "event"
    },
    {
      "anonymous": false,
      "inputs": [
        {
          "indexed": false,
          "internalType": "address",
          "name": "admin",
          "type": "address"
        }
      ],
      "name": "AdminRemoved",
      "type": "event"
    },
    {
      "anonymous": false,
      "inputs": [
        {
          "indexed": true,
          "internalType": "address",
          "name": "account",
          "type": "address"
        },
        {
          "indexed": true,
          "internalType": "address",
          "name": "operator",
          "type": "address"
        },
        {
          "indexed": false,
          "internalType": "bool",
          "name": "approved",
          "type": "bool"
        }
      ],
      "name": "ApprovalForAll",
      "type": "event"
    },
    {
      "anonymous": false,
      "inputs": [
        {
          "indexed": false,
          "internalType": "address",
          "name": "to",
          "type": "address"
        },
        {
          "indexed": false,
          "internalType": "uint8",
          "name": "id",
          "type": "uint8"
        }
      ],
      "name": "CredentialMinted",
      "type": "event"
    },
    {
      "anonymous": false,
      "inputs": [
        {
          "indexed": false,
          "internalType": "bool",
          "name": "enabled",
          "type": "bool"
        },
        {
          "indexed": false,
          "internalType": "uint8",
          "name": "id",
          "type": "uint8"
        },
        {
          "indexed": false,
          "internalType": "string",
          "name": "name",
          "type": "string"
        },
        {
          "indexed": false,
          "internalType": "string",
          "name": "url",
          "type": "string"
        }
      ],
      "name": "CredentialSet",
      "type": "event"
    },
    {
      "anonymous": false,
      "inputs": [
        {
          "indexed": false,
          "internalType": "uint64",
          "name": "version",
          "type": "uint64"
        }
      ],
      "name": "Initialized",
      "type": "event"
    },
    {
      "anonymous": false,
      "inputs": [
        {
          "indexed": false,
          "internalType": "address",
          "name": "minter",
          "type": "address"
        }
      ],
      "name": "MinterAdded",
      "type": "event"
    },
    {
      "anonymous": false,
      "inputs": [
        {
          "indexed": false,
          "internalType": "address",
          "name": "minter",
          "type": "address"
        }
      ],
      "name": "MinterRemoved",
      "type": "event"
    },
    {
      "anonymous": false,
      "inputs": [
        {
          "indexed": true,
          "internalType": "address",
          "name": "previousOwner",
          "type": "address"
        },
        {
          "indexed": true,
          "internalType": "address",
          "name": "newOwner",
          "type": "address"
        }
      ],
      "name": "OwnershipTransferred",
      "type": "event"
    },
    {
      "anonymous": false,
      "inputs": [
        {
          "indexed": true,
          "internalType": "bytes32",
          "name": "role",
          "type": "bytes32"
        },
        {
          "indexed": true,
          "internalType": "bytes32",
          "name": "previousAdminRole",
          "type": "bytes32"
        },
        {
          "indexed": true,
          "internalType": "bytes32",
          "name": "newAdminRole",
          "type": "bytes32"
        }
      ],
      "name": "RoleAdminChanged",
      "type": "event"
    },
    {
      "anonymous": false,
      "inputs": [
        {
          "indexed": true,
          "internalType": "bytes32",
          "name": "role",
          "type": "bytes32"
        },
        {
          "indexed": true,
          "internalType": "address",
          "name": "account",
          "type": "address"
        },
        {
          "indexed": true,
          "internalType": "address",
          "name": "sender",
          "type": "address"
        }
      ],
      "name": "RoleGranted",
      "type": "event"
    },
    {
      "anonymous": false,
      "inputs": [
        {
          "indexed": true,
          "internalType": "bytes32",
          "name": "role",
          "type": "bytes32"
        },
        {
          "indexed": true,
          "internalType": "address",
          "name": "account",
          "type": "address"
        },
        {
          "indexed": true,
          "internalType": "address",
          "name": "sender",
          "type": "address"
        }
      ],
      "name": "RoleRevoked",
      "type": "event"
    },
    {
      "anonymous": false,
      "inputs": [
        {
          "indexed": true,
          "internalType": "address",
          "name": "operator",
          "type": "address"
        },
        {
          "indexed": true,
          "internalType": "address",
          "name": "from",
          "type": "address"
        },
        {
          "indexed": true,
          "internalType": "address",
          "name": "to",
          "type": "address"
        },
        {
          "indexed": false,
          "internalType": "uint256[]",
          "name": "ids",
          "type": "uint256[]"
        },
        {
          "indexed": false,
          "internalType": "uint256[]",
          "name": "values",
          "type": "uint256[]"
        }
      ],
      "name": "TransferBatch",
      "type": "event"
    },
    {
      "anonymous": false,
      "inputs": [
        {
          "indexed": true,
          "internalType": "address",
          "name": "operator",
          "type": "address"
        },
        {
          "indexed": true,
          "internalType": "address",
          "name": "from",
          "type": "address"
        },
        {
          "indexed": true,
          "internalType": "address",
          "name": "to",
          "type": "address"
        },
        {
          "indexed": false,
          "internalType": "uint256",
          "name": "id",
          "type": "uint256"
        },
        {
          "indexed": false,
          "internalType": "uint256",
          "name": "value",
          "type": "uint256"
        }
      ],
      "name": "TransferSingle",
      "type": "event"
    },
    {
      "anonymous": false,
      "inputs": [
        {
          "indexed": false,
          "internalType": "string",
          "name": "value",
          "type": "string"
        },
        {
          "indexed": true,
          "internalType": "uint256",
          "name": "id",
          "type": "uint256"
        }
      ],
      "name": "URI",
      "type": "event"
    },
    {
      "anonymous": false,
      "inputs": [
        {
          "indexed": false,
          "internalType": "uint256",
          "name": "amount",
          "type": "uint256"
        }
      ],
      "name": "Withdraw",
      "type": "event"
    },
    {
      "inputs": [],
      "name": "ADMIN_ROLE",
      "outputs": [
        {
          "internalType": "bytes32",
          "name": "",
          "type": "bytes32"
        }
      ],
      "stateMutability": "view",
      "type": "function"
    },
    {
      "inputs": [],
      "name": "DEFAULT_ADMIN_ROLE",
      "outputs": [
        {
          "internalType": "bytes32",
          "name": "",
          "type": "bytes32"
        }
      ],
      "stateMutability": "view",
      "type": "function"
    },
    {
      "inputs": [],
      "name": "MINTER_ROLE",
      "outputs": [
        {
          "internalType": "bytes32",
          "name": "",
          "type": "bytes32"
        }
      ],
      "stateMutability": "view",
      "type": "function"
    },
    {
      "inputs": [
        {
          "internalType": "address",
          "name": "_account",
          "type": "address"
        }
      ],
      "name": "addAdmin",
      "outputs": [],
      "stateMutability": "nonpayable",
      "type": "function"
    },
    {
      "inputs": [
        {
          "internalType": "address",
          "name": "_account",
          "type": "address"
        }
      ],
      "name": "addMinter",
      "outputs": [],
      "stateMutability": "nonpayable",
      "type": "function"
    },
    {
      "inputs": [
        {
          "internalType": "address",
          "name": "account",
          "type": "address"
        },
        {
          "internalType": "uint256",
          "name": "id",
          "type": "uint256"
        }
      ],
      "name": "balanceOf",
      "outputs": [
        {
          "internalType": "uint256",
          "name": "",
          "type": "uint256"
        }
      ],
      "stateMutability": "view",
      "type": "function"
    },
    {
      "inputs": [
        {
          "internalType": "address[]",
          "name": "accounts",
          "type": "address[]"
        },
        {
          "internalType": "uint256[]",
          "name": "ids",
          "type": "uint256[]"
        }
      ],
      "name": "balanceOfBatch",
      "outputs": [
        {
          "internalType": "uint256[]",
          "name": "",
          "type": "uint256[]"
        }
      ],
      "stateMutability": "view",
      "type": "function"
    },
    {
      "inputs": [
        {
          "internalType": "uint8",
          "name": "",
          "type": "uint8"
        }
      ],
      "name": "credentials",
      "outputs": [
        {
          "internalType": "bool",
          "name": "enabled",
          "type": "bool"
        },
        {
          "internalType": "string",
          "name": "name",
          "type": "string"
        },
        {
          "internalType": "string",
          "name": "url",
          "type": "string"
        }
      ],
      "stateMutability": "view",
      "type": "function"
    },
    {
      "inputs": [
        {
          "internalType": "bytes32",
          "name": "role",
          "type": "bytes32"
        }
      ],
      "name": "getRoleAdmin",
      "outputs": [
        {
          "internalType": "bytes32",
          "name": "",
          "type": "bytes32"
        }
      ],
      "stateMutability": "view",
      "type": "function"
    },
    {
      "inputs": [
        {
          "internalType": "bytes32",
          "name": "role",
          "type": "bytes32"
        },
        {
          "internalType": "address",
          "name": "account",
          "type": "address"
        }
      ],
      "name": "grantRole",
      "outputs": [],
      "stateMutability": "nonpayable",
      "type": "function"
    },
    {
      "inputs": [
        {
          "internalType": "bytes32",
          "name": "role",
          "type": "bytes32"
        },
        {
          "internalType": "address",
          "name": "account",
          "type": "address"
        }
      ],
      "name": "hasRole",
      "outputs": [
        {
          "internalType": "bool",
          "name": "",
          "type": "bool"
        }
      ],
      "stateMutability": "view",
      "type": "function"
    },
    {
      "inputs": [
        {
          "internalType": "address",
          "name": "_owner",
          "type": "address"
        },
        {
          "internalType": "address",
          "name": "_minter",
          "type": "address"
        }
      ],
      "name": "initialize",
      "outputs": [],
      "stateMutability": "nonpayable",
      "type": "function"
    },
    {
      "inputs": [
        {
          "internalType": "address",
          "name": "account",
          "type": "address"
        },
        {
          "internalType": "address",
          "name": "operator",
          "type": "address"
        }
      ],
      "name": "isApprovedForAll",
      "outputs": [
        {
          "internalType": "bool",
          "name": "",
          "type": "bool"
        }
      ],
      "stateMutability": "view",
      "type": "function"
    },
    {
      "inputs": [
        {
          "internalType": "uint8",
          "name": "id",
          "type": "uint8"
        },
        {
          "internalType": "address",
          "name": "_account",
          "type": "address"
        }
      ],
      "name": "mint",
      "outputs": [],
      "stateMutability": "nonpayable",
      "type": "function"
    },
    {
      "inputs": [],
      "name": "name",
      "outputs": [
        {
          "internalType": "string",
          "name": "",
          "type": "string"
        }
      ],
      "stateMutability": "view",
      "type": "function"
    },
    {
      "inputs": [],
      "name": "owner",
      "outputs": [
        {
          "internalType": "address",
          "name": "",
          "type": "address"
        }
      ],
      "stateMutability": "view",
      "type": "function"
    },
    {
      "inputs": [
        {
          "internalType": "address",
          "name": "_account",
          "type": "address"
        }
      ],
      "name": "removeAdmin",
      "outputs": [],
      "stateMutability": "nonpayable",
      "type": "function"
    },
    {
      "inputs": [
        {
          "internalType": "address",
          "name": "_account",
          "type": "address"
        }
      ],
      "name": "removeMinter",
      "outputs": [],
      "stateMutability": "nonpayable",
      "type": "function"
    },
    {
      "inputs": [],
      "name": "renounceOwnership",
      "outputs": [],
      "stateMutability": "nonpayable",
      "type": "function"
    },
    {
      "inputs": [
        {
          "internalType": "bytes32",
          "name": "role",
          "type": "bytes32"
        },
        {
          "internalType": "address",
          "name": "callerConfirmation",
          "type": "address"
        }
      ],
      "name": "renounceRole",
      "outputs": [],
      "stateMutability": "nonpayable",
      "type": "function"
    },
    {
      "inputs": [
        {
          "internalType": "bytes32",
          "name": "role",
          "type": "bytes32"
        },
        {
          "internalType": "address",
          "name": "account",
          "type": "address"
        }
      ],
      "name": "revokeRole",
      "outputs": [],
      "stateMutability": "nonpayable",
      "type": "function"
    },
    {
      "inputs": [
        {
          "internalType": "address",
          "name": "from",
          "type": "address"
        },
        {
          "internalType": "address",
          "name": "to",
          "type": "address"
        },
        {
          "internalType": "uint256[]",
          "name": "ids",
          "type": "uint256[]"
        },
        {
          "internalType": "uint256[]",
          "name": "amounts",
          "type": "uint256[]"
        },
        {
          "internalType": "bytes",
          "name": "data",
          "type": "bytes"
        }
      ],
      "name": "safeBatchTransferFrom",
      "outputs": [],
      "stateMutability": "nonpayable",
      "type": "function"
    },
    {
      "inputs": [
        {
          "internalType": "address",
          "name": "from",
          "type": "address"
        },
        {
          "internalType": "address",
          "name": "to",
          "type": "address"
        },
        {
          "internalType": "uint256",
          "name": "id",
          "type": "uint256"
        },
        {
          "internalType": "uint256",
          "name": "amount",
          "type": "uint256"
        },
        {
          "internalType": "bytes",
          "name": "data",
          "type": "bytes"
        }
      ],
      "name": "safeTransferFrom",
      "outputs": [],
      "stateMutability": "nonpayable",
      "type": "function"
    },
    {
      "inputs": [
        {
          "internalType": "address",
          "name": "operator",
          "type": "address"
        },
        {
          "internalType": "bool",
          "name": "approved",
          "type": "bool"
        }
      ],
      "name": "setApprovalForAll",
      "outputs": [],
      "stateMutability": "nonpayable",
      "type": "function"
    },
    {
      "inputs": [
        {
          "internalType": "bool",
          "name": "_enabled",
          "type": "bool"
        },
        {
          "internalType": "uint8",
          "name": "_id",
          "type": "uint8"
        },
        {
          "internalType": "string",
          "name": "_name",
          "type": "string"
        },
        {
          "internalType": "string",
          "name": "_url",
          "type": "string"
        }
      ],
      "name": "setCredential",
      "outputs": [],
      "stateMutability": "nonpayable",
      "type": "function"
    },
    {
      "inputs": [
        {
          "internalType": "bytes4",
          "name": "interfaceId",
          "type": "bytes4"
        }
      ],
      "name": "supportsInterface",
      "outputs": [
        {
          "internalType": "bool",
          "name": "",
          "type": "bool"
        }
      ],
      "stateMutability": "view",
      "type": "function"
    },
    {
      "inputs": [],
      "name": "symbol",
      "outputs": [
        {
          "internalType": "string",
          "name": "",
          "type": "string"
        }
      ],
      "stateMutability": "view",
      "type": "function"
    },
    {
      "inputs": [
        {
          "internalType": "address",
          "name": "newOwner",
          "type": "address"
        }
      ],
      "name": "transferOwnership",
      "outputs": [],
      "stateMutability": "nonpayable",
      "type": "function"
    },
    {
      "inputs": [
        {
          "internalType": "uint256",
          "name": "id",
          "type": "uint256"
        }
      ],
      "name": "uri",
      "outputs": [
        {
          "internalType": "string",
          "name": "",
          "type": "string"
        }
      ],
      "stateMutability": "view",
      "type": "function"
    },
    {
      "inputs": [],
      "name": "withdraw",
      "outputs": [],
      "stateMutability": "nonpayable",
      "type": "function"
    },
    {
      "stateMutability": "payable",
      "type": "receive"
    }
  ],
  "transactionHash": "0x9c7e8314eff31e9b6aaed43425a9c623c7a5d1122ad02e7ba1855c90ceb29853",
  "args": [],
  "numDeployments": 1,
  "solcInputHash": "90b601e52765b381e94b282ed54e79e7",
  "bytecode": "0x6080604052348015600f57600080fd5b506016601a565b60ca565b7ff0c57e16840df040f15088dc2f81fe391c3923bec73e23a9662efc9c229c6a00805468010000000000000000900460ff161560695760405163f92ee8a960e01b815260040160405180910390fd5b80546001600160401b039081161460c75780546001600160401b0319166001600160401b0390811782556040519081527fc7f505b2f371ae2175ee4913f4499e1f2633a7b5936321eed1cdaeb6115181d29060200160405180910390a15b50565b6123f9806100d96000396000f3fe6080604052600436106101d05760003560e01c8063715018a6116100f7578063a217fddf11610095578063d547741f11610064578063d547741f14610544578063e985e9c514610564578063f242432a146105cc578063f2fde38b146105e757600080fd5b8063a217fddf146104cd578063a22cb465146104e2578063c9322a8114610502578063d53913931461052257600080fd5b80638da5cb5b116100d15780638da5cb5b1461044b57806391d148541461047857806395d89b4114610498578063983b2d56146104ad57600080fd5b8063715018a6146103f457806375b238fc146104095780637bf75f6c1461042b57600080fd5b80632f2ff15d1161016f57806340dac90e1161013e57806340dac90e14610358578063485cc955146103875780634e1273f4146103a757806370480275146103d457600080fd5b80632f2ff15d146102e35780633092afd51461030357806336568abe146103235780633ccfd60b1461034357600080fd5b80630e89341c116101ab5780630e89341c146102615780631785f53c14610281578063248a9ca3146102a35780632eb2c2d6146102c357600080fd5b8062fdd58e146101dc57806301ffc9a71461020f57806306fdde031461023f57600080fd5b366101d757005b600080fd5b3480156101e857600080fd5b506101fc6101f7366004611ab4565b610607565b6040519081526020015b60405180910390f35b34801561021b57600080fd5b5061022f61022a366004611af4565b61063e565b6040519015158152602001610206565b34801561024b57600080fd5b50610254610649565b6040516102069190611b5e565b34801561026d57600080fd5b5061025461027c366004611b71565b6106d7565b34801561028d57600080fd5b506102a161029c366004611b8a565b610781565b005b3480156102af57600080fd5b506101fc6102be366004611b71565b6107f3565b3480156102cf57600080fd5b506102a16102de366004611cf1565b610815565b3480156102ef57600080fd5b506102a16102fe366004611da4565b610855565b34801561030f57600080fd5b506102a161031e366004611b8a565b610877565b34801561032f57600080fd5b506102a161033e366004611da4565b6108e1565b34801561034f57600080fd5b506102a1610919565b34801561036457600080fd5b50610378610373366004611de1565b6109ee565b60405161020693929190611dfc565b34801561039357600080fd5b506102a16103a2366004611e33565b610b25565b3480156103b357600080fd5b506103c76103c2366004611e5d565b610d1e565b6040516102069190611f60565b3480156103e057600080fd5b506102a16103ef366004611b8a565b610dea565b34801561040057600080fd5b506102a1610e54565b34801561041557600080fd5b506101fc6000805160206123a483398151915281565b34801561043757600080fd5b506102a1610446366004611f73565b610e68565b34801561045757600080fd5b50610460610f4f565b6040516001600160a01b039091168152602001610206565b34801561048457600080fd5b5061022f610493366004611da4565b610f7d565b3480156104a457600080fd5b50610254610fb5565b3480156104b957600080fd5b506102a16104c8366004611b8a565b610fc2565b3480156104d957600080fd5b506101fc600081565b3480156104ee57600080fd5b506102a16104fd366004611f9f565b61102c565b34801561050e57600080fd5b506102a161051d366004611fc9565b61103b565b34801561052e57600080fd5b506101fc60008051602061236483398151915281565b34801561055057600080fd5b506102a161055f366004611da4565b611100565b34801561057057600080fd5b5061022f61057f366004611e33565b6001600160a01b0391821660009081527f88be536d5240c274a3b1d3a1be54482fd9caa294f08c62a7cde569f49a3c45016020908152604080832093909416825291909152205460ff1690565b3480156105d857600080fd5b506102a16102de366004612051565b3480156105f357600080fd5b506102a1610602366004611b8a565b61111c565b6000818152600080516020612344833981519152602090815260408083206001600160a01b03861684529091529020545b92915050565b60006106388261115a565b60008054610656906120a9565b80601f0160208091040260200160405190810160405280929190818152602001828054610682906120a9565b80156106cf5780601f106106a4576101008083540402835291602001916106cf565b820191906000526020600020905b8154815290600101906020018083116106b257829003601f168201915b505050505081565b60ff81166000908152600260208190526040909120018054606091906106fc906120a9565b80601f0160208091040260200160405190810160405280929190818152602001828054610728906120a9565b80156107755780601f1061074a57610100808354040283529160200191610775565b820191906000526020600020905b81548152906001019060200180831161075857829003601f168201915b50505050509050919050565b6000805160206123a48339815191526107998161117f565b6107b16000805160206123a483398151915283611189565b506040516001600160a01b03831681527fa3b62bc36326052d97ea62d63c3d60308ed4c3ea8ac079dd8499f1e9c4f80c0f906020015b60405180910390a15050565b6000908152600080516020612384833981519152602052604090206001015490565b60405162461bcd60e51b815260206004820152601060248201526f546f6b656e20736f756c626f756e642160801b60448201526064015b60405180910390fd5b61085e826107f3565b6108678161117f565b610871838361120f565b50505050565b6000805160206123a483398151915261088f8161117f565b6108a760008051602061236483398151915283611189565b506040516001600160a01b03831681527fe94479a9f7e1952cc78f2d6baab678adc1b772d936c6583def489e524cb66692906020016107e7565b6001600160a01b038116331461090a5760405163334bd91960e11b815260040160405180910390fd5b6109148282611189565b505050565b6109216112aa565b47600061092c610f4f565b6001600160a01b03168260405160006040518083038185875af1925050503d8060008114610976576040519150601f19603f3d011682016040523d82523d6000602084013e61097b565b606091505b50509050806109be5760405162461bcd60e51b815260206004820152600f60248201526e151c985b9cd9995c8819985a5b1959608a1b604482015260640161084c565b6040518281527f5b6b431d4476a211bb7d41c20d1aab9ae2321deee0d20be3d9fc9b1093fa6e3d906020016107e7565b6002602052600090815260409020805460018201805460ff9092169291610a14906120a9565b80601f0160208091040260200160405190810160405280929190818152602001828054610a40906120a9565b8015610a8d5780601f10610a6257610100808354040283529160200191610a8d565b820191906000526020600020905b815481529060010190602001808311610a7057829003601f168201915b505050505090806002018054610aa2906120a9565b80601f0160208091040260200160405190810160405280929190818152602001828054610ace906120a9565b8015610b1b5780601f10610af057610100808354040283529160200191610b1b565b820191906000526020600020905b815481529060010190602001808311610afe57829003601f168201915b5050505050905083565b7ff0c57e16840df040f15088dc2f81fe391c3923bec73e23a9662efc9c229c6a008054600160401b810460ff1615906001600160401b0316600081158015610b6a5750825b90506000826001600160401b03166001148015610b865750303b155b905081158015610b94575080155b15610bb25760405163f92ee8a960e01b815260040160405180910390fd5b845467ffffffffffffffff191660011785558315610bdc57845460ff60401b1916600160401b1785555b610be5876112dc565b610c1960405180604001604052806013815260200172687474703a2f2f6578616d706c652e636f6d2f60681b8152506112ed565b610c216112fe565b60408051808201909152600881526704261736563616d760c41b6020820152600090610c4d908261212a565b5060408051808201909152600481526310d4915160e21b6020820152600190610c76908261212a565b50610c9d6000805160206123648339815191526000805160206123a4833981519152611306565b610cb56000805160206123a48339815191528861120f565b50610cce6000805160206123648339815191528761120f565b508315610d1557845460ff60401b19168555604051600181527fc7f505b2f371ae2175ee4913f4499e1f2633a7b5936321eed1cdaeb6115181d29060200160405180910390a15b50505050505050565b60608151835114610d4f5781518351604051635b05999160e01b81526004810192909252602482015260440161084c565b600083516001600160401b03811115610d6a57610d6a611ba5565b604051908082528060200260200182016040528015610d93578160200160208202803683370190505b50905060005b8451811015610de257602080820286010151610dbd90602080840287010151610607565b828281518110610dcf57610dcf6121e8565b6020908102919091010152600101610d99565b509392505050565b6000805160206123a4833981519152610e028161117f565b610e1a6000805160206123a48339815191528361120f565b506040516001600160a01b03831681527f44d6d25963f097ad14f29f06854a01f575648a1ef82f30e562ccd3889717e339906020016107e7565b610e5c6112aa565b610e666000611369565b565b600080516020612364833981519152610e808161117f565b60ff80841660009081526002602052604090205416610eda5760405162461bcd60e51b815260206004820152601660248201527518dc9959195b9d1a585b081b9bdd08195b98589b195960521b604482015260640161084c565b610f06828460ff166001604051806040016040528060048152602001630307830360e41b8152506113da565b604080516001600160a01b038416815260ff851660208201527ff9973ee6296a7c3a283a021ff0e383eeb6920742da87e16f7fc159c615998e25910160405180910390a1505050565b7f9016d09d72d40fdae2fd8ceac6b6234c7706214fd39c1cd1e609a0528c199300546001600160a01b031690565b6000918252600080516020612384833981519152602090815260408084206001600160a01b0393909316845291905290205460ff1690565b60018054610656906120a9565b6000805160206123a4833981519152610fda8161117f565b610ff26000805160206123648339815191528361120f565b506040516001600160a01b03831681527f6ae172837ea30b801fbfcdd4108aa1d5bf8ff775444fd70256b44e6bf3dfc3f6906020016107e7565b61103733838361143f565b5050565b6000805160206123a48339815191526110538161117f565b604080516060810182528615158152602080820186815282840186905260ff8816600090815260029092529290208151815460ff1916901515178155915190919060018201906110a3908261212a565b50604082015160028201906110b8908261212a565b509050507fc9d78a3e33b96df595f92adfb0a3cc8e9a5f3befafafbdf03b136800321174f7858585856040516110f194939291906121fe565b60405180910390a15050505050565b611109826107f3565b6111128161117f565b6108718383611189565b6111246112aa565b6001600160a01b03811661114e57604051631e4fbdf760e01b81526000600482015260240161084c565b61115781611369565b50565b60006001600160e01b03198216637965db0b60e01b14806106385750610638826114e7565b6111578133611537565b60006000805160206123848339815191526111a48484610f7d565b15611205576000848152602082815260408083206001600160a01b0387168085529252808320805460ff1916905551339287917ff6391f5c32d9c69d2a47ea670b442974b53935d1edc7fd64eb21e047a839171b9190a46001915050610638565b6000915050610638565b600060008051602061238483398151915261122a8484610f7d565b611205576000848152602082815260408083206001600160a01b03871684529091529020805460ff191660011790556112603390565b6001600160a01b0316836001600160a01b0316857f2f8788117e7eff1d82e926ec794901d17c78024a50270940304540a733656f0d60405160405180910390a46001915050610638565b336112b3610f4f565b6001600160a01b031614610e665760405163118cdaa760e01b815233600482015260240161084c565b6112e4611570565b611157816115b9565b6112f5611570565b611157816115c1565b610e66611570565b6000805160206123848339815191526000611320846107f3565b600085815260208490526040808220600101869055519192508491839187917fbd79b86ffe0ab8e8776151514217cd7cacd52c909f66475c3af44e129f0b00ff9190a450505050565b7f9016d09d72d40fdae2fd8ceac6b6234c7706214fd39c1cd1e609a0528c19930080546001600160a01b031981166001600160a01b03848116918217845560405192169182907f8be0079c531659141344cd1fd0a4f28419497f9722a3daafe3b4186f6b6457e090600090a3505050565b6001600160a01b03841661140457604051632bfa23e760e11b81526000600482015260240161084c565b604080516001808252602082018690528183019081526060820185905260808201909252906114376000878484876115d2565b505050505050565b6000805160206123448339815191526001600160a01b0383166114775760405162ced3e160e81b81526000600482015260240161084c565b6001600160a01b038481166000818152600184016020908152604080832094881680845294825291829020805460ff191687151590811790915591519182527f17307eab39ab6107e8899845ad3d59bd9653f200f220920489ca2b5937696c31910160405180910390a350505050565b60006001600160e01b03198216636cdb3d1360e11b148061151857506001600160e01b031982166303a24d0760e21b145b8061063857506301ffc9a760e01b6001600160e01b0319831614610638565b6115418282610f7d565b6110375760405163e2517d3f60e01b81526001600160a01b03821660048201526024810183905260440161084c565b7ff0c57e16840df040f15088dc2f81fe391c3923bec73e23a9662efc9c229c6a0054600160401b900460ff16610e6657604051631afcd79f60e31b815260040160405180910390fd5b611124611570565b6115c9611570565b6111578161162c565b6115de85858585611666565b6001600160a01b038416156116255782513390600103611617576020848101519084015161161083898985858961188b565b5050611437565b6114378187878787876119af565b5050505050565b6000805160206123448339815191527f88be536d5240c274a3b1d3a1be54482fd9caa294f08c62a7cde569f49a3c4502610914838261212a565b8051825160008051602061234483398151915291146116a55782518251604051635b05999160e01b81526004810192909252602482015260440161084c565b3360005b84518110156117ab576020818102868101820151908601909101516001600160a01b0389161561175c576000828152602086815260408083206001600160a01b038d16845290915290205481811015611735576040516303dee4c560e01b81526001600160a01b038b16600482015260248101829052604481018390526064810184905260840161084c565b6000838152602087815260408083206001600160a01b038e16845290915290209082900390555b6001600160a01b038816156117a1576000828152602086815260408083206001600160a01b038c1684529091528120805483929061179b90849061223f565b90915550505b50506001016116a9565b50835160010361182c5760208401516000906020850151909150866001600160a01b0316886001600160a01b0316846001600160a01b03167fc3d58168c5ae7397731d063d5bbf3d657854427343f4c083240f7aacaa2d0f62858560405161181d929190918252602082015260400190565b60405180910390a45050611437565b846001600160a01b0316866001600160a01b0316826001600160a01b03167f4a39dc06d4c0dbc64b70af90fd698a233a518aa5d07e595d983b8c0526c8f7fb878760405161187b929190612260565b60405180910390a4505050505050565b6001600160a01b0384163b156114375760405163f23a6e6160e01b81526001600160a01b0385169063f23a6e61906118cf908990899088908890889060040161228e565b6020604051808303816000875af192505050801561190a575060408051601f3d908101601f19168201909252611907918101906122c8565b60015b611973573d808015611938576040519150601f19603f3d011682016040523d82523d6000602084013e61193d565b606091505b50805160000361196b57604051632bfa23e760e11b81526001600160a01b038616600482015260240161084c565b805181602001fd5b6001600160e01b0319811663f23a6e6160e01b14610d1557604051632bfa23e760e11b81526001600160a01b038616600482015260240161084c565b6001600160a01b0384163b156114375760405163bc197c8160e01b81526001600160a01b0385169063bc197c81906119f390899089908890889088906004016122e5565b6020604051808303816000875af1925050508015611a2e575060408051601f3d908101601f19168201909252611a2b918101906122c8565b60015b611a5c573d808015611938576040519150601f19603f3d011682016040523d82523d6000602084013e61193d565b6001600160e01b0319811663bc197c8160e01b14610d1557604051632bfa23e760e11b81526001600160a01b038616600482015260240161084c565b80356001600160a01b0381168114611aaf57600080fd5b919050565b60008060408385031215611ac757600080fd5b611ad083611a98565b946020939093013593505050565b6001600160e01b03198116811461115757600080fd5b600060208284031215611b0657600080fd5b8135611b1181611ade565b9392505050565b6000815180845260005b81811015611b3e57602081850181015186830182015201611b22565b506000602082860101526020601f19601f83011685010191505092915050565b602081526000611b116020830184611b18565b600060208284031215611b8357600080fd5b5035919050565b600060208284031215611b9c57600080fd5b611b1182611a98565b634e487b7160e01b600052604160045260246000fd5b604051601f8201601f191681016001600160401b0381118282101715611be357611be3611ba5565b604052919050565b60006001600160401b03821115611c0457611c04611ba5565b5060051b60200190565b600082601f830112611c1f57600080fd5b8135611c32611c2d82611beb565b611bbb565b8082825260208201915060208360051b860101925085831115611c5457600080fd5b602085015b83811015611c71578035835260209283019201611c59565b5095945050505050565b600082601f830112611c8c57600080fd5b8135602083016000806001600160401b03841115611cac57611cac611ba5565b50601f8301601f1916602001611cc181611bbb565b915050828152858383011115611cd657600080fd5b82826020830137600092810160200192909252509392505050565b600080600080600060a08688031215611d0957600080fd5b611d1286611a98565b9450611d2060208701611a98565b935060408601356001600160401b03811115611d3b57600080fd5b611d4788828901611c0e565b93505060608601356001600160401b03811115611d6357600080fd5b611d6f88828901611c0e565b92505060808601356001600160401b03811115611d8b57600080fd5b611d9788828901611c7b565b9150509295509295909350565b60008060408385031215611db757600080fd5b82359150611dc760208401611a98565b90509250929050565b803560ff81168114611aaf57600080fd5b600060208284031215611df357600080fd5b611b1182611dd0565b8315158152606060208201526000611e176060830185611b18565b8281036040840152611e298185611b18565b9695505050505050565b60008060408385031215611e4657600080fd5b611e4f83611a98565b9150611dc760208401611a98565b60008060408385031215611e7057600080fd5b82356001600160401b03811115611e8657600080fd5b8301601f81018513611e9757600080fd5b8035611ea5611c2d82611beb565b8082825260208201915060208360051b850101925087831115611ec757600080fd5b6020840193505b82841015611ef057611edf84611a98565b825260209384019390910190611ece565b945050505060208301356001600160401b03811115611f0e57600080fd5b611f1a85828601611c0e565b9150509250929050565b600081518084526020840193506020830160005b82811015611f56578151865260209586019590910190600101611f38565b5093949350505050565b602081526000611b116020830184611f24565b60008060408385031215611f8657600080fd5b611e4f83611dd0565b80358015158114611aaf57600080fd5b60008060408385031215611fb257600080fd5b611fbb83611a98565b9150611dc760208401611f8f565b60008060008060808587031215611fdf57600080fd5b611fe885611f8f565b9350611ff660208601611dd0565b925060408501356001600160401b0381111561201157600080fd5b61201d87828801611c7b565b92505060608501356001600160401b0381111561203957600080fd5b61204587828801611c7b565b91505092959194509250565b600080600080600060a0868803121561206957600080fd5b61207286611a98565b945061208060208701611a98565b9350604086013592506060860135915060808601356001600160401b03811115611d8b57600080fd5b600181811c908216806120bd57607f821691505b6020821081036120dd57634e487b7160e01b600052602260045260246000fd5b50919050565b601f82111561091457806000526020600020601f840160051c8101602085101561210a5750805b601f840160051c820191505b818110156116255760008155600101612116565b81516001600160401b0381111561214357612143611ba5565b6121578161215184546120a9565b846120e3565b6020601f82116001811461218b57600083156121735750848201515b600019600385901b1c1916600184901b178455611625565b600084815260208120601f198516915b828110156121bb578785015182556020948501946001909201910161219b565b50848210156121d95786840151600019600387901b60f8161c191681555b50505050600190811b01905550565b634e487b7160e01b600052603260045260246000fd5b841515815260ff841660208201526080604082015260006122226080830185611b18565b82810360608401526122348185611b18565b979650505050505050565b8082018082111561063857634e487b7160e01b600052601160045260246000fd5b6040815260006122736040830185611f24565b82810360208401526122858185611f24565b95945050505050565b6001600160a01b03868116825285166020820152604081018490526060810183905260a06080820181905260009061223490830184611b18565b6000602082840312156122da57600080fd5b8151611b1181611ade565b6001600160a01b0386811682528516602082015260a06040820181905260009061231190830186611f24565b82810360608401526123238186611f24565b905082810360808401526123378185611b18565b9897505050505050505056fe88be536d5240c274a3b1d3a1be54482fd9caa294f08c62a7cde569f49a3c45009f2df0fed2c77648de5860a4cc508cd0818c85b8b8a1ab4ceeef8d981c8956a602dd7bc7dec4dceedda775e58dd541e08a116c6c53815c0bd028192f7b626800a49807205ce4d355092ef5a8a18f56e8913cf4a201fbe287825b095693c21775a26469706673582212209b30cacb7356b72de42c8f556c21e6ef0c39dfe9ce050a56a3311159520e213f64736f6c634300081b0033",
  "devdoc": {
    "author": "Kevin Jones",
    "errors": {
      "AccessControlBadConfirmation()": [
        {
          "details": "The caller of a function is not the expected one. NOTE: Don't confuse with {AccessControlUnauthorizedAccount}."
        }
      ],
      "AccessControlUnauthorizedAccount(address,bytes32)": [
        {
          "details": "The `account` is missing a role."
        }
      ],
      "ERC1155InsufficientBalance(address,uint256,uint256,uint256)": [
        {
          "details": "Indicates an error related to the current `balance` of a `sender`. Used in transfers.",
          "params": {
            "balance": "Current balance for the interacting account.",
            "needed": "Minimum amount required to perform a transfer.",
            "sender": "Address whose tokens are being transferred.",
            "tokenId": "Identifier number of a token."
          }
        }
      ],
      "ERC1155InvalidApprover(address)": [
        {
          "details": "Indicates a failure with the `approver` of a token to be approved. Used in approvals.",
          "params": {
            "approver": "Address initiating an approval operation."
          }
        }
      ],
      "ERC1155InvalidArrayLength(uint256,uint256)": [
        {
          "details": "Indicates an array length mismatch between ids and values in a safeBatchTransferFrom operation. Used in batch transfers.",
          "params": {
            "idsLength": "Length of the array of token identifiers",
            "valuesLength": "Length of the array of token amounts"
          }
        }
      ],
      "ERC1155InvalidOperator(address)": [
        {
          "details": "Indicates a failure with the `operator` to be approved. Used in approvals.",
          "params": {
            "operator": "Address that may be allowed to operate on tokens without being their owner."
          }
        }
      ],
      "ERC1155InvalidReceiver(address)": [
        {
          "details": "Indicates a failure with the token `receiver`. Used in transfers.",
          "params": {
            "receiver": "Address to which tokens are being transferred."
          }
        }
      ],
      "ERC1155InvalidSender(address)": [
        {
          "details": "Indicates a failure with the token `sender`. Used in transfers.",
          "params": {
            "sender": "Address whose tokens are being transferred."
          }
        }
      ],
      "ERC1155MissingApprovalForAll(address,address)": [
        {
          "details": "Indicates a failure with the `operator`s approval. Used in transfers.",
          "params": {
            "operator": "Address that may be allowed to operate on tokens without being their owner.",
            "owner": "Address of the current owner of a token."
          }
        }
      ],
      "InvalidInitialization()": [
        {
          "details": "The contract is already initialized."
        }
      ],
      "NotInitializing()": [
        {
          "details": "The contract is not initializing."
        }
      ],
      "OwnableInvalidOwner(address)": [
        {
          "details": "The owner is not a valid owner account. (eg. `address(0)`)"
        }
      ],
      "OwnableUnauthorizedAccount(address)": [
        {
          "details": "The caller account is not authorized to perform an operation."
        }
      ]
    },
    "events": {
      "ApprovalForAll(address,address,bool)": {
        "details": "Emitted when `account` grants or revokes permission to `operator` to transfer their tokens, according to `approved`."
      },
      "Initialized(uint64)": {
        "details": "Triggered when the contract has been initialized or reinitialized."
      },
      "RoleAdminChanged(bytes32,bytes32,bytes32)": {
        "details": "Emitted when `newAdminRole` is set as ``role``'s admin role, replacing `previousAdminRole` `DEFAULT_ADMIN_ROLE` is the starting admin for all roles, despite {RoleAdminChanged} not being emitted signaling this."
      },
      "RoleGranted(bytes32,address,address)": {
        "details": "Emitted when `account` is granted `role`. `sender` is the account that originated the contract call. This account bears the admin role (for the granted role). Expected in cases where the role was granted using the internal {AccessControl-_grantRole}."
      },
      "RoleRevoked(bytes32,address,address)": {
        "details": "Emitted when `account` is revoked `role`. `sender` is the account that originated the contract call:   - if using `revokeRole`, it is the admin role bearer   - if using `renounceRole`, it is the role bearer (i.e. `account`)"
      },
      "TransferBatch(address,address,address,uint256[],uint256[])": {
        "details": "Equivalent to multiple {TransferSingle} events, where `operator`, `from` and `to` are the same for all transfers."
      },
      "TransferSingle(address,address,address,uint256,uint256)": {
        "details": "Emitted when `value` amount of tokens of type `id` are transferred from `from` to `to` by `operator`."
      },
      "URI(string,uint256)": {
        "details": "Emitted when the URI for token type `id` changes to `value`, if it is a non-programmatic URI. If an {URI} event was emitted for `id`, the standard https://eips.ethereum.org/EIPS/eip-1155#metadata-extensions[guarantees] that `value` will equal the value returned by {IERC1155MetadataURI-uri}."
      }
    },
    "kind": "dev",
    "methods": {
      "addAdmin(address)": {
        "params": {
          "_account": "The account to add as an admin"
        }
      },
      "addMinter(address)": {
        "params": {
          "_account": "The account to add as a minter"
        }
      },
      "balanceOf(address,uint256)": {
        "details": "See {IERC1155-balanceOf}."
      },
      "balanceOfBatch(address[],uint256[])": {
        "details": "See {IERC1155-balanceOfBatch}. Requirements: - `accounts` and `ids` must have the same length."
      },
      "constructor": {
        "custom:oz-upgrades-unsafe-allow": "constructor"
      },
      "getRoleAdmin(bytes32)": {
        "details": "Returns the admin role that controls `role`. See {grantRole} and {revokeRole}. To change a role's admin, use {_setRoleAdmin}."
      },
      "grantRole(bytes32,address)": {
        "details": "Grants `role` to `account`. If `account` had not been already granted `role`, emits a {RoleGranted} event. Requirements: - the caller must have ``role``'s admin role. May emit a {RoleGranted} event."
      },
      "hasRole(bytes32,address)": {
        "details": "Returns `true` if `account` has been granted `role`."
      },
      "isApprovedForAll(address,address)": {
        "details": "See {IERC1155-isApprovedForAll}."
      },
      "mint(uint8,address)": {
        "params": {
          "_account": "The account to mint the credential to",
          "id": "The ID of the credential"
        }
      },
      "owner()": {
        "details": "Returns the address of the current owner."
      },
      "removeAdmin(address)": {
        "params": {
          "_account": "The account to remove as an admin"
        }
      },
      "removeMinter(address)": {
        "params": {
          "_account": "The account to remove as a minter"
        }
      },
      "renounceOwnership()": {
        "details": "Leaves the contract without owner. It will not be possible to call `onlyOwner` functions. Can only be called by the current owner. NOTE: Renouncing ownership will leave the contract without an owner, thereby disabling any functionality that is only available to the owner."
      },
      "renounceRole(bytes32,address)": {
        "details": "Revokes `role` from the calling account. Roles are often managed via {grantRole} and {revokeRole}: this function's purpose is to provide a mechanism for accounts to lose their privileges if they are compromised (such as when a trusted device is misplaced). If the calling account had been revoked `role`, emits a {RoleRevoked} event. Requirements: - the caller must be `callerConfirmation`. May emit a {RoleRevoked} event."
      },
      "revokeRole(bytes32,address)": {
        "details": "Revokes `role` from `account`. If `account` had been granted `role`, emits a {RoleRevoked} event. Requirements: - the caller must have ``role``'s admin role. May emit a {RoleRevoked} event."
      },
      "setApprovalForAll(address,bool)": {
        "details": "See {IERC1155-setApprovalForAll}."
      },
      "setCredential(bool,uint8,string,string)": {
        "params": {
          "_enabled": "Whether the credential is enabled",
          "_id": "The ID of the credential",
          "_name": "The name of the credential",
          "_url": "The URL for the credential's metadata"
        }
      },
      "transferOwnership(address)": {
        "details": "Transfers ownership of the contract to a new account (`newOwner`). Can only be called by the current owner."
      },
      "uri(uint256)": {
        "params": {
          "id": "The token ID"
        }
      }
    },
    "version": 1
  },
  "userdoc": {
    "kind": "user",
    "methods": {
      "addAdmin(address)": {
        "notice": "Add an admin"
      },
      "addMinter(address)": {
        "notice": "Add a minter"
      },
      "mint(uint8,address)": {
        "notice": "Mint a credential"
      },
      "removeAdmin(address)": {
        "notice": "Remove an admin"
      },
      "removeMinter(address)": {
        "notice": "Remove a minter"
      },
      "safeBatchTransferFrom(address,address,uint256[],uint256[],bytes)": {
        "notice": "Override safeBatchTransferFrom to revert"
      },
      "safeTransferFrom(address,address,uint256,uint256,bytes)": {
        "notice": "Override safeTransferFrom to revert"
      },
      "setCredential(bool,uint8,string,string)": {
        "notice": "Add a credential with URL"
      },
      "uri(uint256)": {
        "notice": "Override the URI function to return different URLs for each token"
      },
      "withdraw()": {
        "notice": "Function that allows the owner to withdraw ETH from the contract"
      }
    },
    "notice": "A smart contract for the The Graph Builders Basecamp challenges",
    "version": 1
  },
  "storageLayout": {
    "storage": [
      {
        "astId": 25377,
        "contract": "contracts/Basecamp.sol:Basecamp",
        "label": "name",
        "offset": 0,
        "slot": "0",
        "type": "t_string_storage"
      },
      {
        "astId": 25379,
        "contract": "contracts/Basecamp.sol:Basecamp",
        "label": "symbol",
        "offset": 0,
        "slot": "1",
        "type": "t_string_storage"
      },
      {
        "astId": 25391,
        "contract": "contracts/Basecamp.sol:Basecamp",
        "label": "credentials",
        "offset": 0,
        "slot": "2",
        "type": "t_mapping(t_uint8,t_struct(Credential)25386_storage)"
      }
    ],
    "types": {
      "t_bool": {
        "encoding": "inplace",
        "label": "bool",
        "numberOfBytes": "1"
      },
      "t_mapping(t_uint8,t_struct(Credential)25386_storage)": {
        "encoding": "mapping",
        "key": "t_uint8",
        "label": "mapping(uint8 => struct Basecamp.Credential)",
        "numberOfBytes": "32",
        "value": "t_struct(Credential)25386_storage"
      },
      "t_string_storage": {
        "encoding": "bytes",
        "label": "string",
        "numberOfBytes": "32"
      },
      "t_struct(Credential)25386_storage": {
        "encoding": "inplace",
        "label": "struct Basecamp.Credential",
        "members": [
          {
            "astId": 25381,
            "contract": "contracts/Basecamp.sol:Basecamp",
            "label": "enabled",
            "offset": 0,
            "slot": "0",
            "type": "t_bool"
          },
          {
            "astId": 25383,
            "contract": "contracts/Basecamp.sol:Basecamp",
            "label": "name",
            "offset": 0,
            "slot": "1",
            "type": "t_string_storage"
          },
          {
            "astId": 25385,
            "contract": "contracts/Basecamp.sol:Basecamp",
            "label": "url",
            "offset": 0,
            "slot": "2",
            "type": "t_string_storage"
          }
        ],
        "numberOfBytes": "96"
      },
      "t_uint8": {
        "encoding": "inplace",
        "label": "uint8",
        "numberOfBytes": "1"
      }
    }
  }
}