{
  "address": "0xEfF9e3664b2aec69A8d25e65B8FA6aa694851104",
  "abi": [
    {
      "inputs": [
        {
          "internalType": "address",
          "name": "_functionsRouterAddress",
          "type": "address"
        }
      ],
      "stateMutability": "nonpayable",
      "type": "constructor"
    },
    {
      "inputs": [],
      "name": "AccessControlBadConfirmation",
      "type": "error"
    },
    {
      "inputs": [
        {
          "internalType": "address",
          "name": "account",
          "type": "address"
        },
        {
          "internalType": "bytes32",
          "name": "neededRole",
          "type": "bytes32"
        }
      ],
      "name": "AccessControlUnauthorizedAccount",
      "type": "error"
    },
    {
      "inputs": [],
      "name": "AlreadyMinted",
      "type": "error"
    },
    {
      "inputs": [],
      "name": "EmptyArgs",
      "type": "error"
    },
    {
      "inputs": [],
      "name": "EmptySource",
      "type": "error"
    },
    {
      "inputs": [],
      "name": "InvalidInitialization",
      "type": "error"
    },
    {
      "inputs": [],
      "name": "InvalidSourceCode",
      "type": "error"
    },
    {
      "inputs": [],
      "name": "NoInlineSecrets",
      "type": "error"
    },
    {
      "inputs": [],
      "name": "NotInitializing",
      "type": "error"
    },
    {
      "inputs": [],
      "name": "OnlyRouterCanFulfill",
      "type": "error"
    },
    {
      "inputs": [
        {
          "internalType": "address",
          "name": "owner",
          "type": "address"
        }
      ],
      "name": "OwnableInvalidOwner",
      "type": "error"
    },
    {
      "inputs": [
        {
          "internalType": "address",
          "name": "account",
          "type": "address"
        }
      ],
      "name": "OwnableUnauthorizedAccount",
      "type": "error"
    },
    {
      "inputs": [
        {
          "internalType": "uint256",
          "name": "value",
          "type": "uint256"
        },
        {
          "internalType": "uint256",
          "name": "length",
          "type": "uint256"
        }
      ],
      "name": "StringsInsufficientHexLength",
      "type": "error"
    },
    {
      "inputs": [],
      "name": "TransferFailed",
      "type": "error"
    },
    {
      "inputs": [],
      "name": "ValidationFailed",
      "type": "error"
    },
    {
      "anonymous": false,
      "inputs": [
        {
          "indexed": true,
          "internalType": "address",
          "name": "newBasecampAddress",
          "type": "address"
        }
      ],
      "name": "BasecampAddressSet",
      "type": "event"
    },
    {
      "anonymous": false,
      "inputs": [
        {
          "indexed": true,
          "internalType": "bytes32",
          "name": "newDonId",
          "type": "bytes32"
        }
      ],
      "name": "DonIdSet",
      "type": "event"
    },
    {
      "anonymous": false,
      "inputs": [
        {
          "indexed": false,
          "internalType": "uint64",
          "name": "version",
          "type": "uint64"
        }
      ],
      "name": "Initialized",
      "type": "event"
    },
    {
      "anonymous": false,
      "inputs": [
        {
          "indexed": true,
          "internalType": "bytes32",
          "name": "requestId",
          "type": "bytes32"
        },
        {
          "indexed": true,
          "internalType": "uint8",
          "name": "missionIndex",
          "type": "uint8"
        },
        {
          "indexed": false,
          "internalType": "string",
          "name": "queryUrl",
          "type": "string"
        },
        {
          "indexed": true,
          "internalType": "address",
          "name": "account",
          "type": "address"
        }
      ],
      "name": "MissionSubmitted",
      "type": "event"
    },
    {
      "anonymous": false,
      "inputs": [
        {
          "indexed": true,
          "internalType": "bytes32",
          "name": "requestId",
          "type": "bytes32"
        },
        {
          "indexed": true,
          "internalType": "uint8",
          "name": "missionIndex",
          "type": "uint8"
        },
        {
          "indexed": false,
          "internalType": "uint256",
          "name": "isValid",
          "type": "uint256"
        },
        {
          "indexed": false,
          "internalType": "bool",
          "name": "success",
          "type": "bool"
        },
        {
          "indexed": true,
          "internalType": "address",
          "name": "account",
          "type": "address"
        }
      ],
      "name": "MissionValidated",
      "type": "event"
    },
    {
      "anonymous": false,
      "inputs": [
        {
          "indexed": true,
          "internalType": "address",
          "name": "previousOwner",
          "type": "address"
        },
        {
          "indexed": true,
          "internalType": "address",
          "name": "newOwner",
          "type": "address"
        }
      ],
      "name": "OwnershipTransferred",
      "type": "event"
    },
    {
      "anonymous": false,
      "inputs": [
        {
          "indexed": true,
          "internalType": "bytes32",
          "name": "id",
          "type": "bytes32"
        }
      ],
      "name": "RequestFulfilled",
      "type": "event"
    },
    {
      "anonymous": false,
      "inputs": [
        {
          "indexed": true,
          "internalType": "bytes32",
          "name": "id",
          "type": "bytes32"
        }
      ],
      "name": "RequestSent",
      "type": "event"
    },
    {
      "anonymous": false,
      "inputs": [
        {
          "indexed": true,
          "internalType": "bytes32",
          "name": "role",
          "type": "bytes32"
        },
        {
          "indexed": true,
          "internalType": "bytes32",
          "name": "previousAdminRole",
          "type": "bytes32"
        },
        {
          "indexed": true,
          "internalType": "bytes32",
          "name": "newAdminRole",
          "type": "bytes32"
        }
      ],
      "name": "RoleAdminChanged",
      "type": "event"
    },
    {
      "anonymous": false,
      "inputs": [
        {
          "indexed": true,
          "internalType": "bytes32",
          "name": "role",
          "type": "bytes32"
        },
        {
          "indexed": true,
          "internalType": "address",
          "name": "account",
          "type": "address"
        },
        {
          "indexed": true,
          "internalType": "address",
          "name": "sender",
          "type": "address"
        }
      ],
      "name": "RoleGranted",
      "type": "event"
    },
    {
      "anonymous": false,
      "inputs": [
        {
          "indexed": true,
          "internalType": "bytes32",
          "name": "role",
          "type": "bytes32"
        },
        {
          "indexed": true,
          "internalType": "address",
          "name": "account",
          "type": "address"
        },
        {
          "indexed": true,
          "internalType": "address",
          "name": "sender",
          "type": "address"
        }
      ],
      "name": "RoleRevoked",
      "type": "event"
    },
    {
      "anonymous": false,
      "inputs": [
        {
          "indexed": false,
          "internalType": "uint256",
          "name": "amount",
          "type": "uint256"
        }
      ],
      "name": "Withdraw",
      "type": "event"
    },
    {
      "inputs": [],
      "name": "DEFAULT_ADMIN_ROLE",
      "outputs": [
        {
          "internalType": "bytes32",
          "name": "",
          "type": "bytes32"
        }
      ],
      "stateMutability": "view",
      "type": "function"
    },
    {
      "inputs": [
        {
          "internalType": "uint8",
          "name": "",
          "type": "uint8"
        },
        {
          "internalType": "address",
          "name": "",
          "type": "address"
        }
      ],
      "name": "accountMinted",
      "outputs": [
        {
          "internalType": "bool",
          "name": "",
          "type": "bool"
        }
      ],
      "stateMutability": "view",
      "type": "function"
    },
    {
      "inputs": [],
      "name": "basecamp",
      "outputs": [
        {
          "internalType": "contract Basecamp",
          "name": "",
          "type": "address"
        }
      ],
      "stateMutability": "view",
      "type": "function"
    },
    {
      "inputs": [],
      "name": "donId",
      "outputs": [
        {
          "internalType": "bytes32",
          "name": "",
          "type": "bytes32"
        }
      ],
      "stateMutability": "view",
      "type": "function"
    },
    {
      "inputs": [
        {
          "internalType": "bytes32",
          "name": "role",
          "type": "bytes32"
        }
      ],
      "name": "getRoleAdmin",
      "outputs": [
        {
          "internalType": "bytes32",
          "name": "",
          "type": "bytes32"
        }
      ],
      "stateMutability": "view",
      "type": "function"
    },
    {
      "inputs": [
        {
          "internalType": "bytes32",
          "name": "role",
          "type": "bytes32"
        },
        {
          "internalType": "address",
          "name": "account",
          "type": "address"
        }
      ],
      "name": "grantRole",
      "outputs": [],
      "stateMutability": "nonpayable",
      "type": "function"
    },
    {
      "inputs": [
        {
          "internalType": "bytes32",
          "name": "requestId",
          "type": "bytes32"
        },
        {
          "internalType": "bytes",
          "name": "response",
          "type": "bytes"
        },
        {
          "internalType": "bytes",
          "name": "err",
          "type": "bytes"
        }
      ],
      "name": "handleOracleFulfillment",
      "outputs": [],
      "stateMutability": "nonpayable",
      "type": "function"
    },
    {
      "inputs": [
        {
          "internalType": "bytes32",
          "name": "role",
          "type": "bytes32"
        },
        {
          "internalType": "address",
          "name": "account",
          "type": "address"
        }
      ],
      "name": "hasRole",
      "outputs": [
        {
          "internalType": "bool",
          "name": "",
          "type": "bool"
        }
      ],
      "stateMutability": "view",
      "type": "function"
    },
    {
      "inputs": [
        {
          "internalType": "address",
          "name": "_owner",
          "type": "address"
        },
        {
          "internalType": "address",
          "name": "_basecampAddress",
          "type": "address"
        },
        {
          "internalType": "bytes32",
          "name": "_donId",
          "type": "bytes32"
        }
      ],
      "name": "initialize",
      "outputs": [],
      "stateMutability": "nonpayable",
      "type": "function"
    },
    {
      "inputs": [
        {
          "internalType": "uint8",
          "name": "",
          "type": "uint8"
        }
      ],
      "name": "missionCodeHashes",
      "outputs": [
        {
          "internalType": "bytes32",
          "name": "",
          "type": "bytes32"
        }
      ],
      "stateMutability": "view",
      "type": "function"
    },
    {
      "inputs": [],
      "name": "owner",
      "outputs": [
        {
          "internalType": "address",
          "name": "",
          "type": "address"
        }
      ],
      "stateMutability": "view",
      "type": "function"
    },
    {
      "inputs": [],
      "name": "renounceOwnership",
      "outputs": [],
      "stateMutability": "nonpayable",
      "type": "function"
    },
    {
      "inputs": [
        {
          "internalType": "bytes32",
          "name": "role",
          "type": "bytes32"
        },
        {
          "internalType": "address",
          "name": "callerConfirmation",
          "type": "address"
        }
      ],
      "name": "renounceRole",
      "outputs": [],
      "stateMutability": "nonpayable",
      "type": "function"
    },
    {
      "inputs": [
        {
          "internalType": "bytes32",
          "name": "role",
          "type": "bytes32"
        },
        {
          "internalType": "address",
          "name": "account",
          "type": "address"
        }
      ],
      "name": "revokeRole",
      "outputs": [],
      "stateMutability": "nonpayable",
      "type": "function"
    },
    {
      "inputs": [
        {
          "internalType": "address",
          "name": "_basecampAddress",
          "type": "address"
        }
      ],
      "name": "setBasecampAddress",
      "outputs": [],
      "stateMutability": "nonpayable",
      "type": "function"
    },
    {
      "inputs": [
        {
          "internalType": "bytes32",
          "name": "_donId",
          "type": "bytes32"
        }
      ],
      "name": "setDonId",
      "outputs": [],
      "stateMutability": "nonpayable",
      "type": "function"
    },
    {
      "inputs": [
        {
          "internalType": "uint8",
          "name": "missionIndex",
          "type": "uint8"
        },
        {
          "internalType": "string",
          "name": "javaScriptSourceCode",
          "type": "string"
        }
      ],
      "name": "setMissionCodeHash",
      "outputs": [],
      "stateMutability": "nonpayable",
      "type": "function"
    },
    {
      "inputs": [
        {
          "internalType": "bytes4",
          "name": "interfaceId",
          "type": "bytes4"
        }
      ],
      "name": "supportsInterface",
      "outputs": [
        {
          "internalType": "bool",
          "name": "",
          "type": "bool"
        }
      ],
      "stateMutability": "view",
      "type": "function"
    },
    {
      "inputs": [
        {
          "internalType": "address",
          "name": "newOwner",
          "type": "address"
        }
      ],
      "name": "transferOwnership",
      "outputs": [],
      "stateMutability": "nonpayable",
      "type": "function"
    },
    {
      "inputs": [
        {
          "internalType": "uint8",
          "name": "missionIndex",
          "type": "uint8"
        },
        {
          "internalType": "string",
          "name": "javaScriptSourceCode",
          "type": "string"
        },
        {
          "internalType": "uint64",
          "name": "subscriptionId",
          "type": "uint64"
        },
        {
          "internalType": "uint32",
          "name": "gasLimit",
          "type": "uint32"
        },
        {
          "internalType": "string",
          "name": "queryUrl",
          "type": "string"
        }
      ],
      "name": "validateMission",
      "outputs": [
        {
          "internalType": "bytes32",
          "name": "",
          "type": "bytes32"
        }
      ],
      "stateMutability": "nonpayable",
      "type": "function"
    },
    {
      "inputs": [],
      "name": "withdraw",
      "outputs": [],
      "stateMutability": "nonpayable",
      "type": "function"
    },
    {
      "stateMutability": "payable",
      "type": "receive"
    }
  ],
  "transactionHash": "0x5412face81676ea9802d8894f8acc668855ed3c72affebade09cf687ddefea0d",
  "args": [
    "0xf9B8fc078197181C841c296C876945aaa425B278"
  ],
  "numDeployments": 4,
  "solcInputHash": "c7443d2537f76c19c8f83ba431eae1ab",
  "bytecode": "0x60c060405234801561001057600080fd5b5060405161231038038061231083398101604081905261002f91610064565b6001600160a01b03166080527fa49807205ce4d355092ef5a8a18f56e8913cf4a201fbe287825b095693c2177560a052610094565b60006020828403121561007657600080fd5b81516001600160a01b038116811461008d57600080fd5b9392505050565b60805160a05161223b6100d56000396000818161049b015281816106f6015281816107f80152610bb101526000818161044b01526113b0015261223b6000f3fe60806040526004361061012e5760003560e01c8063779ce9eb116100ab578063a056d7c61161006f578063a056d7c614610339578063a217fddf14610359578063bbbad6431461036e578063d547741f1461038e578063f2fde38b146103ae578063f538c3a9146103ce57600080fd5b8063779ce9eb1461029657806378ca5de7146102ce5780638da5cb5b146102ee5780638dbe7b9d1461030357806391d148541461031957600080fd5b806336568abe116100f257806336568abe146101ff5780633ccfd60b1461021f5780634e21e267146102345780636133f98514610261578063715018a61461028157600080fd5b806301ffc9a71461013a5780630ca761751461016f5780630fc115e314610191578063248a9ca3146101b15780632f2ff15d146101df57600080fd5b3661013557005b600080fd5b34801561014657600080fd5b5061015a610155366004611b9c565b610409565b60405190151581526020015b60405180910390f35b34801561017b57600080fd5b5061018f61018a366004611c69565b610440565b005b34801561019d57600080fd5b5061018f6101ac366004611d37565b610499565b3480156101bd57600080fd5b506101d16101cc366004611d89565b6104f7565b604051908152602001610166565b3480156101eb57600080fd5b5061018f6101fa366004611db9565b610519565b34801561020b57600080fd5b5061018f61021a366004611db9565b61053b565b34801561022b57600080fd5b5061018f61056e565b34801561024057600080fd5b506101d161024f366004611de5565b60046020526000908152604090205481565b34801561026d57600080fd5b5061018f61027c366004611e00565b610629565b34801561028d57600080fd5b5061018f6107e2565b3480156102a257600080fd5b506000546102b6906001600160a01b031681565b6040516001600160a01b039091168152602001610166565b3480156102da57600080fd5b5061018f6102e9366004611d89565b6107f6565b3480156102fa57600080fd5b506102b6610854565b34801561030f57600080fd5b506101d160015481565b34801561032557600080fd5b5061015a610334366004611db9565b610882565b34801561034557600080fd5b506101d1610354366004611e3d565b6108ba565b34801561036557600080fd5b506101d1600081565b34801561037a57600080fd5b5061018f610389366004611efb565b610baf565b34801561039a57600080fd5b5061018f6103a9366004611db9565b610c22565b3480156103ba57600080fd5b5061018f6103c9366004611efb565b610c3e565b3480156103da57600080fd5b5061015a6103e9366004611f16565b600360209081526000928352604080842090915290825290205460ff1681565b60006001600160e01b03198216637965db0b60e01b148061043a57506301ffc9a760e01b6001600160e01b03198316145b92915050565b336001600160a01b037f000000000000000000000000000000000000000000000000000000000000000016146104895760405163c6829f8360e01b815260040160405180910390fd5b610494838383610c81565b505050565b7f00000000000000000000000000000000000000000000000000000000000000006104c381610e5e565b82826040516104d3929190611f40565b604080519182900390912060ff909516600090815260046020522093909355505050565b60009081526000805160206121e6833981519152602052604090206001015490565b610522826104f7565b61052b81610e5e565b6105358383610e68565b50505050565b6001600160a01b03811633146105645760405163334bd91960e11b815260040160405180910390fd5b6104948282610f0d565b610576610f89565b476000610581610854565b6001600160a01b03168260405160006040518083038185875af1925050503d80600081146105cb576040519150601f19603f3d011682016040523d82523d6000602084013e6105d0565b606091505b50509050806105f2576040516312171d8360e31b815260040160405180910390fd5b6040518281527f5b6b431d4476a211bb7d41c20d1aab9ae2321deee0d20be3d9fc9b1093fa6e3d9060200160405180910390a15050565b7ff0c57e16840df040f15088dc2f81fe391c3923bec73e23a9662efc9c229c6a008054600160401b810460ff1615906001600160401b031660008115801561066e5750825b90506000826001600160401b0316600114801561068a5750303b155b905081158015610698575080155b156106b65760405163f92ee8a960e01b815260040160405180910390fd5b845467ffffffffffffffff1916600117855583156106e057845460ff60401b1916600160401b1785555b6106e988610fbb565b6106f1610fcc565b61071b7f000000000000000000000000000000000000000000000000000000000000000089610e68565b50600080546001600160a01b0319166001600160a01b0389169081178255600188905560405190917fdda6b883b1f76e9b16c1cbf6bfa75b96194c8d90b1814d255ae33d0b17c5489591a26001546040517f2f57c3e0d900c388932ff46cda5934a69212eb3c9d1f754af57ebf6d466fd67690600090a283156107d857845460ff60401b19168555604051600181527fc7f505b2f371ae2175ee4913f4499e1f2633a7b5936321eed1cdaeb6115181d29060200160405180910390a15b5050505050505050565b6107ea610f89565b6107f46000610fd4565b565b7f000000000000000000000000000000000000000000000000000000000000000061082081610e5e565b600182905560405182907f2f57c3e0d900c388932ff46cda5934a69212eb3c9d1f754af57ebf6d466fd67690600090a25050565b7f9016d09d72d40fdae2fd8ceac6b6234c7706214fd39c1cd1e609a0528c199300546001600160a01b031690565b60009182526000805160206121e6833981519152602090815260408084206001600160a01b0393909316845291905290205460ff1690565b60ff8088166000908152600360209081526040808320338452909152812054909116156108fa57604051631bbdf5c560e31b815260040160405180910390fd5b6000878760405161090c929190611f40565b60405180910390209050600460008a60ff1660ff16815260200190815260200160002054811461094f57604051631161b0b360e01b815260040160405180910390fd5b6109986040805161010081019091528060008152602001600081526020016000815260200160608152602001606081526020016060815260200160608152602001606081525090565b6109da89898080601f01602080910402602001604051908101604052809392919081815260200183838082843760009201919091525085939250506110459050565b60408051600280825260608201909252600091816020015b60608152602001906001900390816109f2579050509050610a1233611056565b81600081518110610a2557610a25611f50565b602002602001018190525085858080601f016020809104026020016040519081016040528093929190818152602001838380828437600092019190915250508351849250600191508110610a7b57610a7b611f50565b6020908102919091010152610a90828261106c565b6000610aa8610a9e84611096565b8a8a6001546113ab565b90506040518060600160405280336001600160a01b031681526020018d60ff168152602001600015158152506002600083815260200190815260200160002060008201518160000160006101000a8154816001600160a01b0302191690836001600160a01b0316021790555060208201518160000160146101000a81548160ff021916908360ff16021790555060408201518160000160156101000a81548160ff021916908315150217905550905050336001600160a01b03168c60ff16827f52f07f80dd8bff48bf3acffa527249c807e2284a77d3c6d7362d1896a156aa2c8a8a604051610b98929190611f66565b60405180910390a49b9a5050505050505050505050565b7f0000000000000000000000000000000000000000000000000000000000000000610bd981610e5e565b600080546001600160a01b0319166001600160a01b038416908117825560405190917fdda6b883b1f76e9b16c1cbf6bfa75b96194c8d90b1814d255ae33d0b17c5489591a25050565b610c2b826104f7565b610c3481610e5e565b6105358383610f0d565b610c46610f89565b6001600160a01b038116610c7557604051631e4fbdf760e01b8152600060048201526024015b60405180910390fd5b610c7e81610fd4565b50565b805115610ca2578060405162461bcd60e51b8152600401610c6c9190611fdb565b60008381526002602052604090208054600160a81b900460ff1615610cc75750505050565b600083806020019051810190610cdd9190611fee565b905080600103610df2578154600160a81b60ff60a81b1982161780845560ff600160a01b91829004811660009081526003602090815260408083206001600160a01b039687168452909152808220805460ff19166001179055905486549151631efdd7db60e21b815293820490921660048401528316602483015290911690637bf75f6c90604401600060405180830381600087803b158015610d7f57600080fd5b505af1158015610d93573d6000803e3d6000fd5b5050835460408051600180825260208201526001600160a01b0383169450600160a01b90920460ff16925088917fcb93dd54ff4c32dc859b3e320ccc929c5dfe90af8e1f901c70eaedb923754a6c910160405180910390a45050505050565b815460408051600080825260208201526001600160a01b03831692600160a01b900460ff169188917fcb93dd54ff4c32dc859b3e320ccc929c5dfe90af8e1f901c70eaedb923754a6c910160405180910390a4604051630a0b0d7960e01b815260040160405180910390fd5b610c7e813361147d565b60006000805160206121e6833981519152610e838484610882565b610f03576000848152602082815260408083206001600160a01b03871684529091529020805460ff19166001179055610eb93390565b6001600160a01b0316836001600160a01b0316857f2f8788117e7eff1d82e926ec794901d17c78024a50270940304540a733656f0d60405160405180910390a4600191505061043a565b600091505061043a565b60006000805160206121e6833981519152610f288484610882565b15610f03576000848152602082815260408083206001600160a01b0387168085529252808320805460ff1916905551339287917ff6391f5c32d9c69d2a47ea670b442974b53935d1edc7fd64eb21e047a839171b9190a4600191505061043a565b33610f92610854565b6001600160a01b0316146107f45760405163118cdaa760e01b8152336004820152602401610c6c565b610fc36114b6565b610c7e816114ff565b6107f46114b6565b7f9016d09d72d40fdae2fd8ceac6b6234c7706214fd39c1cd1e609a0528c19930080546001600160a01b031981166001600160a01b03848116918217845560405192169182907f8be0079c531659141344cd1fd0a4f28419497f9722a3daafe3b4186f6b6457e090600090a3505050565b6110528260008084611507565b5050565b606061043a6001600160a01b0383166014611585565b805160000361108e5760405163fe936cb760e01b815260040160405180910390fd5b60c090910152565b606060006110a5610100611704565b90506110de6040518060400160405280600c81526020016b31b7b232a637b1b0ba34b7b760a11b8152508261172590919063ffffffff16565b82516110fc9060028111156110f5576110f5612007565b829061173e565b6040805180820190915260088152676c616e677561676560c01b6020820152611126908290611725565b604083015161113d9080156110f5576110f5612007565b604080518082019091526006815265736f7572636560d01b6020820152611165908290611725565b6060830151611175908290611725565b60a083015151156111c25760408051808201909152601081526f726571756573745369676e617475726560801b60208201526111b2908290611725565b60a08301516111c2908290611773565b60c0830151511561124e576040805180820190915260048152636172677360e01b60208201526111f3908290611725565b6111fc81611780565b60005b8360c00151518110156112445761123c8460c00151828151811061122557611225611f50565b60200260200101518361172590919063ffffffff16565b6001016111ff565b5061124e816117a4565b608083015151156113125760008360200151600281111561127157611271612007565b0361128f5760405163a80d31f760e01b815260040160405180910390fd5b60408051808201909152600f81526e39b2b1b932ba39a637b1b0ba34b7b760891b60208201526112c0908290611725565b6112d9836020015160028111156110f5576110f5612007565b6040805180820190915260078152667365637265747360c81b6020820152611302908290611725565b6080830151611312908290611773565b60e083015151156113a35760408051808201909152600981526862797465734172677360b81b6020820152611348908290611725565b61135181611780565b60005b8360e0015151811015611399576113918460e00151828151811061137a5761137a611f50565b60200260200101518361177390919063ffffffff16565b600101611354565b506113a3816117a4565b515192915050565b6000807f00000000000000000000000000000000000000000000000000000000000000006001600160a01b031663461d27628688600188886040518663ffffffff1660e01b815260040161140395949392919061201d565b6020604051808303816000875af1158015611422573d6000803e3d6000fd5b505050506040513d601f19601f820116820180604052508101906114469190611fee565b60405190915081907f1131472297a800fee664d1d89cfa8f7676ff07189ecc53f80bbb5f4969099db890600090a295945050505050565b6114878282610882565b6110525760405163e2517d3f60e01b81526001600160a01b038216600482015260248101839052604401610c6c565b7ff0c57e16840df040f15088dc2f81fe391c3923bec73e23a9662efc9c229c6a0054600160401b900460ff166107f457604051631afcd79f60e31b815260040160405180910390fd5b610c466114b6565b8051600003611529576040516322ce3edd60e01b815260040160405180910390fd5b8383600281111561153c5761153c612007565b9081600281111561154f5761154f612007565b9052506040840182801561156557611565612007565b9081801561157557611575612007565b9052506060909301929092525050565b606082600061159584600261207c565b6115a0906002612093565b6001600160401b038111156115b7576115b7611bc6565b6040519080825280601f01601f1916602001820160405280156115e1576020820181803683370190505b509050600360fc1b816000815181106115fc576115fc611f50565b60200101906001600160f81b031916908160001a905350600f60fb1b8160018151811061162b5761162b611f50565b60200101906001600160f81b031916908160001a905350600061164f85600261207c565b61165a906001612093565b90505b60018111156116d2576f181899199a1a9b1b9c1cb0b131b232b360811b83600f166010811061168e5761168e611f50565b1a60f81b8282815181106116a4576116a4611f50565b60200101906001600160f81b031916908160001a90535060049290921c916116cb816120a6565b905061165d565b5081156116fc5760405163e22e27eb60e01b81526004810186905260248101859052604401610c6c565b949350505050565b61170c611b67565b805161171890836117c2565b5060006020820152919050565b6117328260038351611839565b81516104949082611952565b815161174b9060c261197a565b50611052828260405160200161176391815260200190565b6040516020818303038152906040525b6117328260028351611839565b61178b8160046119e3565b60018160200181815161179e9190612093565b90525050565b6117af8160076119e3565b60018160200181815161179e91906120bd565b6040805180820190915260608152600060208201526117e26020836120d0565b1561180a576117f26020836120d0565b6117fd9060206120bd565b6118079083612093565b91505b60208084018390526040518085526000815290818401018181101561182e57600080fd5b604052509192915050565b6017816001600160401b03161161185f5782516105359060e0600585901b16831761197a565b60ff816001600160401b03161161189f578251611887906018611fe0600586901b161761197a565b508251610535906001600160401b03831660016119fa565b61ffff816001600160401b0316116118e05782516118c8906019611fe0600586901b161761197a565b508251610535906001600160401b03831660026119fa565b63ffffffff816001600160401b03161161192357825161190b90601a611fe0600586901b161761197a565b508251610535906001600160401b03831660046119fa565b825161193a90601b611fe0600586901b161761197a565b508251610535906001600160401b03831660086119fa565b60408051808201909152606081526000602082015261197383838451611a7f565b9392505050565b604080518082019091526060815260006020820152825151600061199f826001612093565b9050846020015182106119c0576119c0856119bb83600261207c565b611b50565b84516020838201018581535080518211156119d9578181525b5093949350505050565b815161049490601f611fe0600585901b161761197a565b6040805180820190915260608152600060208201528351516000611a1e8285612093565b90508560200151811115611a3b57611a3b866119bb83600261207c565b60006001611a4b866101006121d9565b611a5591906120bd565b90508651828101878319825116178152508051831115611a73578281525b50959695505050505050565b6040805180820190915260608152600060208201528251821115611aa257600080fd5b8351516000611ab18483612093565b90508560200151811115611ace57611ace866119bb83600261207c565b855180518382016020019160009180851115611ae8578482525b505050602086015b60208610611b285780518252611b07602083612093565b9150611b14602082612093565b9050611b216020876120bd565b9550611af0565b51815160001960208890036101000a0190811690199190911617905250849150509392505050565b8151611b5c83836117c2565b506105358382611952565b6040518060400160405280611b8f604051806040016040528060608152602001600081525090565b8152602001600081525090565b600060208284031215611bae57600080fd5b81356001600160e01b03198116811461197357600080fd5b634e487b7160e01b600052604160045260246000fd5b600082601f830112611bed57600080fd5b81356001600160401b03811115611c0657611c06611bc6565b604051601f8201601f19908116603f011681016001600160401b0381118282101715611c3457611c34611bc6565b604052818152838201602001851015611c4c57600080fd5b816020850160208301376000918101602001919091529392505050565b600080600060608486031215611c7e57600080fd5b8335925060208401356001600160401b03811115611c9b57600080fd5b611ca786828701611bdc565b92505060408401356001600160401b03811115611cc357600080fd5b611ccf86828701611bdc565b9150509250925092565b803560ff81168114611cea57600080fd5b919050565b60008083601f840112611d0157600080fd5b5081356001600160401b03811115611d1857600080fd5b602083019150836020828501011115611d3057600080fd5b9250929050565b600080600060408486031215611d4c57600080fd5b611d5584611cd9565b925060208401356001600160401b03811115611d7057600080fd5b611d7c86828701611cef565b9497909650939450505050565b600060208284031215611d9b57600080fd5b5035919050565b80356001600160a01b0381168114611cea57600080fd5b60008060408385031215611dcc57600080fd5b82359150611ddc60208401611da2565b90509250929050565b600060208284031215611df757600080fd5b61197382611cd9565b600080600060608486031215611e1557600080fd5b611e1e84611da2565b9250611e2c60208501611da2565b929592945050506040919091013590565b600080600080600080600060a0888a031215611e5857600080fd5b611e6188611cd9565b965060208801356001600160401b03811115611e7c57600080fd5b611e888a828b01611cef565b90975095505060408801356001600160401b0381168114611ea857600080fd5b9350606088013563ffffffff81168114611ec157600080fd5b925060808801356001600160401b03811115611edc57600080fd5b611ee88a828b01611cef565b989b979a50959850939692959293505050565b600060208284031215611f0d57600080fd5b61197382611da2565b60008060408385031215611f2957600080fd5b611f3283611cd9565b9150611ddc60208401611da2565b8183823760009101908152919050565b634e487b7160e01b600052603260045260246000fd5b60208152816020820152818360408301376000818301604090810191909152601f909201601f19160101919050565b6000815180845260005b81811015611fbb57602081850181015186830182015201611f9f565b506000602082860101526020601f19601f83011685010191505092915050565b6020815260006119736020830184611f95565b60006020828403121561200057600080fd5b5051919050565b634e487b7160e01b600052602160045260246000fd5b6001600160401b038616815260a06020820152600061203f60a0830187611f95565b61ffff9590951660408301525063ffffffff92909216606083015260809091015292915050565b634e487b7160e01b600052601160045260246000fd5b808202811582820484141761043a5761043a612066565b8082018082111561043a5761043a612066565b6000816120b5576120b5612066565b506000190190565b8181038181111561043a5761043a612066565b6000826120ed57634e487b7160e01b600052601260045260246000fd5b500690565b6001815b600184111561212d5780850481111561211157612111612066565b600184161561211f57908102905b60019390931c9280026120f6565b935093915050565b6000826121445750600161043a565b816121515750600061043a565b816001811461216757600281146121715761218d565b600191505061043a565b60ff84111561218257612182612066565b50506001821b61043a565b5060208310610133831016604e8410600b84101617156121b0575081810a61043a565b6121bd60001984846120f2565b80600019048211156121d1576121d1612066565b029392505050565b6000611973838361213556fe02dd7bc7dec4dceedda775e58dd541e08a116c6c53815c0bd028192f7b626800a2646970667358221220c3294a0f0ce9db37e7ece6cb29c016668d6a1b3b7910dc0140d5651955aac1e164736f6c634300081b0033",
  "devdoc": {
    "errors": {
      "AccessControlBadConfirmation()": [
        {
          "details": "The caller of a function is not the expected one. NOTE: Don't confuse with {AccessControlUnauthorizedAccount}."
        }
      ],
      "AccessControlUnauthorizedAccount(address,bytes32)": [
        {
          "details": "The `account` is missing a role."
        }
      ],
      "InvalidInitialization()": [
        {
          "details": "The contract is already initialized."
        }
      ],
      "NotInitializing()": [
        {
          "details": "The contract is not initializing."
        }
      ],
      "OwnableInvalidOwner(address)": [
        {
          "details": "The owner is not a valid owner account. (eg. `address(0)`)"
        }
      ],
      "OwnableUnauthorizedAccount(address)": [
        {
          "details": "The caller account is not authorized to perform an operation."
        }
      ],
      "StringsInsufficientHexLength(uint256,uint256)": [
        {
          "details": "The `value` string doesn't fit in the specified `length`."
        }
      ]
    },
    "events": {
      "Initialized(uint64)": {
        "details": "Triggered when the contract has been initialized or reinitialized."
      },
      "RoleAdminChanged(bytes32,bytes32,bytes32)": {
        "details": "Emitted when `newAdminRole` is set as ``role``'s admin role, replacing `previousAdminRole` `DEFAULT_ADMIN_ROLE` is the starting admin for all roles, despite {RoleAdminChanged} not being emitted signaling this."
      },
      "RoleGranted(bytes32,address,address)": {
        "details": "Emitted when `account` is granted `role`. `sender` is the account that originated the contract call. This account bears the admin role (for the granted role). Expected in cases where the role was granted using the internal {AccessControl-_grantRole}."
      },
      "RoleRevoked(bytes32,address,address)": {
        "details": "Emitted when `account` is revoked `role`. `sender` is the account that originated the contract call:   - if using `revokeRole`, it is the admin role bearer   - if using `renounceRole`, it is the role bearer (i.e. `account`)"
      }
    },
    "kind": "dev",
    "methods": {
      "getRoleAdmin(bytes32)": {
        "details": "Returns the admin role that controls `role`. See {grantRole} and {revokeRole}. To change a role's admin, use {_setRoleAdmin}."
      },
      "grantRole(bytes32,address)": {
        "details": "Grants `role` to `account`. If `account` had not been already granted `role`, emits a {RoleGranted} event. Requirements: - the caller must have ``role``'s admin role. May emit a {RoleGranted} event."
      },
      "hasRole(bytes32,address)": {
        "details": "Returns `true` if `account` has been granted `role`."
      },
      "owner()": {
        "details": "Returns the address of the current owner."
      },
      "renounceOwnership()": {
        "details": "Leaves the contract without owner. It will not be possible to call `onlyOwner` functions. Can only be called by the current owner. NOTE: Renouncing ownership will leave the contract without an owner, thereby disabling any functionality that is only available to the owner."
      },
      "renounceRole(bytes32,address)": {
        "details": "Revokes `role` from the calling account. Roles are often managed via {grantRole} and {revokeRole}: this function's purpose is to provide a mechanism for accounts to lose their privileges if they are compromised (such as when a trusted device is misplaced). If the calling account had been revoked `role`, emits a {RoleRevoked} event. Requirements: - the caller must be `callerConfirmation`. May emit a {RoleRevoked} event."
      },
      "revokeRole(bytes32,address)": {
        "details": "Revokes `role` from `account`. If `account` had been granted `role`, emits a {RoleRevoked} event. Requirements: - the caller must have ``role``'s admin role. May emit a {RoleRevoked} event."
      },
      "supportsInterface(bytes4)": {
        "details": "See {IERC165-supportsInterface}."
      },
      "transferOwnership(address)": {
        "details": "Transfers ownership of the contract to a new account (`newOwner`). Can only be called by the current owner."
      }
    },
    "version": 1
  },
  "userdoc": {
    "kind": "user",
    "methods": {},
    "version": 1
  },
  "storageLayout": {
    "storage": [
      {
        "astId": 11028,
        "contract": "contracts/Validator.sol:Validator",
        "label": "basecamp",
        "offset": 0,
        "slot": "0",
        "type": "t_contract(Basecamp)10985"
      },
      {
        "astId": 11030,
        "contract": "contracts/Validator.sol:Validator",
        "label": "donId",
        "offset": 0,
        "slot": "1",
        "type": "t_bytes32"
      },
      {
        "astId": 11035,
        "contract": "contracts/Validator.sol:Validator",
        "label": "requests",
        "offset": 0,
        "slot": "2",
        "type": "t_mapping(t_bytes32,t_struct(MissionRequest)11025_storage)"
      },
      {
        "astId": 11041,
        "contract": "contracts/Validator.sol:Validator",
        "label": "accountMinted",
        "offset": 0,
        "slot": "3",
        "type": "t_mapping(t_uint8,t_mapping(t_address,t_bool))"
      },
      {
        "astId": 11045,
        "contract": "contracts/Validator.sol:Validator",
        "label": "missionCodeHashes",
        "offset": 0,
        "slot": "4",
        "type": "t_mapping(t_uint8,t_bytes32)"
      }
    ],
    "types": {
      "t_address": {
        "encoding": "inplace",
        "label": "address",
        "numberOfBytes": "20"
      },
      "t_bool": {
        "encoding": "inplace",
        "label": "bool",
        "numberOfBytes": "1"
      },
      "t_bytes32": {
        "encoding": "inplace",
        "label": "bytes32",
        "numberOfBytes": "32"
      },
      "t_contract(Basecamp)10985": {
        "encoding": "inplace",
        "label": "contract Basecamp",
        "numberOfBytes": "20"
      },
      "t_mapping(t_address,t_bool)": {
        "encoding": "mapping",
        "key": "t_address",
        "label": "mapping(address => bool)",
        "numberOfBytes": "32",
        "value": "t_bool"
      },
      "t_mapping(t_bytes32,t_struct(MissionRequest)11025_storage)": {
        "encoding": "mapping",
        "key": "t_bytes32",
        "label": "mapping(bytes32 => struct Validator.MissionRequest)",
        "numberOfBytes": "32",
        "value": "t_struct(MissionRequest)11025_storage"
      },
      "t_mapping(t_uint8,t_bytes32)": {
        "encoding": "mapping",
        "key": "t_uint8",
        "label": "mapping(uint8 => bytes32)",
        "numberOfBytes": "32",
        "value": "t_bytes32"
      },
      "t_mapping(t_uint8,t_mapping(t_address,t_bool))": {
        "encoding": "mapping",
        "key": "t_uint8",
        "label": "mapping(uint8 => mapping(address => bool))",
        "numberOfBytes": "32",
        "value": "t_mapping(t_address,t_bool)"
      },
      "t_struct(MissionRequest)11025_storage": {
        "encoding": "inplace",
        "label": "struct Validator.MissionRequest",
        "members": [
          {
            "astId": 11020,
            "contract": "contracts/Validator.sol:Validator",
            "label": "account",
            "offset": 0,
            "slot": "0",
            "type": "t_address"
          },
          {
            "astId": 11022,
            "contract": "contracts/Validator.sol:Validator",
            "label": "missionIndex",
            "offset": 20,
            "slot": "0",
            "type": "t_uint8"
          },
          {
            "astId": 11024,
            "contract": "contracts/Validator.sol:Validator",
            "label": "isProcessed",
            "offset": 21,
            "slot": "0",
            "type": "t_bool"
          }
        ],
        "numberOfBytes": "32"
      },
      "t_uint8": {
        "encoding": "inplace",
        "label": "uint8",
        "numberOfBytes": "1"
      }
    }
  }
}